:020000020000FC
:200000000040003408408C140800683A0000000000000000000000000000000000000000DA
:20000800DEFFED04DFC00015D8400215D8800315D8C00415D9000515D9400615D98007156A
:20001000D9C00815000B307ADA000915DA400A15DA800B15DAC00C15DB000D15DB400E15C4
:20001800DB800F15DBC01015D9401115EBFFFF04DBC012150009313A2880004C10000326FA
:200020002000022600000FC000000706DF401215E8BFFF17E93FFF0400001D001000021E21
:20002800EBFFFF04DBC01215D9401117DF401217DFC000172801707AD8400217D880031714
:20003000D8C00417D9000517D9400617D9800717D9C00817DA000917DA400A17DA800B17F2
:20003800DAC00C17DB000D17DB400E17DB800F17DBC01017DEC01304EF80083ADEFFF90429
:20004000DFC00615DF000515DF0005040001883A0005313AE0BFFE15E0BFFE17E0BFFB15BD
:20004800E03FFD1500800044E0BFFC15E0FFFB17E0BFFC171884703A10001426008000340C
:2000500010931304E0FFFD17180690FA10C5883A10C000170080003410931304E13FFD171B
:20005800200890FA1105883A10800104108000171009883A183EE83A0001883A0005313A3C
:20006000E0BFFF15E0BFFF1700000706E0BFFC171085883AE0BFFC15E0BFFD1710800044CB
:20006800E0BFFD15003FE106E0BFFB15E0BFFB17103FDB1E0001883A0001883AE037883A9A
:20007000DFC00117DF000017DEC00204F800283ADEFFFB04DFC00415DF000315DF00030454
:20007800E13FFF1500BFFFC4E0BFFD15E03FFE15D0A4D71710000726D0A4D717E0FFFD17DB
:20008000E1BFFE17E17FFF171809883A103EE83A00000206003DA03A0005883AE037883A23
:20008800DFC00117DF000017DEC00204F800283A06C000B4DEC0001406800034D6AE3B14F4
:2000900000005B0000006340003FFF06DEFFFA04DFC00515DF000415DF000404008000B467
:2000980010840804E0BFFE15E03FFC1500002106E03FFF1500800104E0BFFD15000012061E
:2000A000E0BFFF171008923AE0BFFD17117FFFC40080003410896F04E0FFFC1718C7883A4E
:2000A80018C7883A10C5883A1145883A1080000310803FCC2084B03AE0BFFF15E0BFFD17C6
:2000B00010BFFFC4E0BFFD15E0BFFD1700BFEC16E0BFFE17E0FFFF1710C00015E0BFFE1737
:2000B80010800104E0BFFE15E0BFFC1710800044E0BFFC15E0BFFC1710800110103FDC1E0F
:2000C00000005200010000342109730400003E000007883A008000B410840D0410C0003513
:2000C80000C00044008000B410840C0410C00035E03FFD1500000606008000B410840F041F
:2000D00010800037E0BFFD1710800044E0BFFD15E0BFFD1710807D10103FF71E003FFF0699
:2000D800DEFFFD04DC0000152021883A2809883ADFC00215DC4001152823883A00003F40CF
:2000E00081400217010000342101040429000115100F883A880D883A8009883A00004100C4
:2000E80000FFFFC410C00926814002170180003401C0004428800117318975048009883A65
:2000F000103EE83A10BFFFE00085C83ADFC00217DC400117DC000017DEC00304F800283A6D
:2000F80000800034108E3C04200B883A11000017000036012005883A10C00007180002260C
:2001000010800044003FFC061105C83AF800283A2880000B1080020C100021262880008F79
:20010800DEFFFA04DC000015DFC00515DD000415DCC00315DC800215DC4001152821883AF8
:20011000100012162027883A3025883A3823883A0501000404400B0E880F883AA440010EA7
:2001180001C100048140008F900D883A9809883A00004C800080050E88A3C83A90A5883A6C
:20012000003FF4060005883A000007068080000B108010148080000D00BFFFC4000002065C
:2001280000BFFFC4F800283ADFC00517DD000417DCC00317DC800217DC400117DC000017D6
:20013000DEC00604F800283ADEFFFD04DC00001504000034DC40011584130B042023883AC9
:200138002809883A300B883A380D883ADFC002158000001500006DC000FFFFC410C0031E85
:2001400080C000171800012688C00015DFC00217DC400117DC000017DEC00304F800283ACE
:20014800DEFFFD04DF000215DF000204E13FFE15E17FFF150001883AE037883ADF000017A5
:20015000DEC00104F800283ADEFFFC04DF000315DF000304E13FFD15E17FFE15E1BFFF157F
:20015800E0FFFE17E0BFFD1718800C2600000806E0BFFE1710C00104E0FFFE15E0FFFD179A
:2001600019000104E13FFD1518C0001710C00015E0FFFE17E0BFFF1718BFF51E0001883A05
:20016800E037883ADF000017DEC00104F800283ADEFFFE04DFC00115DF000015D839883A50
:2001700001800034318E4604014000342949810401000034210E460400005480018000340E
:2001780031808C040140003429400804010000342100080400005480018000343189810412
:200180000140003429496F040100003421096F040000548000016440000177000001883A7F
:20018800E037883ADFC00117DF000017DEC00204F800283ADEFFFD04DFC00215DF0001154A
:20019000DF0001040009883A000081000001883A00008480018000343189760401400034FA
:200198002949760401000034210976040001B140D0A4D117D0E4D217D124D317200D883AC9
:2001A000180B883A1009883A000024C0E0BFFF1501000044000156C0E13FFF17000235809F
:2001A800DEFFFE04DFC00115DF000015D839883AD0A0071710000326D0A00717103EE83A17
:2001B00000000106D0A4D004E037883ADFC00117DF000017DEC00204F800283ADEFFF90482
:2001B800DFC00615DF000515DF000504E13FFD15E17FFE15E1BFFF15E0BFFD171000081652
:2001C00001400304E13FFD17000256001007883A00800034108DDB041885883A00000106DC
:2001C8000005883AE0BFFB15E0BFFB1710002126E0BFFB1710800217108000CC1000182695
:2001D000E0BFFB17108000171080061710001426E0BFFB171080001710800617E0FFFF17C6
:2001D800180D883AE17FFE17E13FFB17103EE83AE0BFFC15E0BFFC171000070E00006A0018
:2001E0001007883AE0BFFC170085C83A1880001500BFFFC400000C06E0BFFC1700000A06EA
:2001E80000006A001007883A00800344188000150000040600006A001007883A008014441B
:2001F0001880001500BFFFC4E037883ADFC00117DF000017DEC00204F800283ADEFFFD045E
:2001F800DFC00215DF000115DF000104E13FFF15D1600404E13FFF1700016CC0E037883AAF
:20020000DFC00117DF000017DEC00204F800283ADEFFFD04DFC00215DF000115DF000104C6
:20020800E13FFF15000203C0008000441001703A0001883AE037883ADFC00117DF00001715
:20021000DEC00204F800283ADEFFFE04DFC00115DF000015D839883A01C0FA04000D883AE7
:20021800000B883A010000B4210400040001388001800044000B883A010000342109C304AA
:200220000000A0C0010000342109B90400007DC00001883AE037883ADFC00117DF000017BC
:20022800DEC00204F800283ADEFFFA04DFC00515DF000415DF000404E13FFD15E17FFE15A0
:20023000E1BFFF15E0BFFD1710800017E0BFFC15E0BFFC1710C00A04E0BFFD171080021704
:20023800100F883AE1BFFF17E17FFE171809883A0000ED00E037883ADFC00117DF00001744
:20024000DEC00204F800283ADEFFFA04DFC00515DF000415DF000404E13FFD15E17FFE1588
:20024800E1BFFF15E0BFFD1710800017E0BFFC15E0BFFC1710C00A04E0BFFD1710800217EC
:20025000100F883AE1BFFF17E17FFE171809883A00010EC0E037883ADFC00117DF0000174A
:20025800DEC00204F800283ADEFFFC04DFC00315DF000215DF000204E13FFF15E0BFFF1730
:2002600010800017E0BFFE15E0BFFE1710C00A04E0BFFF1710800217100B883A1809883A75
:200268000000D780E037883ADFC00117DF000017DEC00204F800283ADEFFFA04DFC0051507
:20027000DF000415DF000404E13FFD15E17FFE15E1BFFF15E0BFFD1710800017E0BFFC152C
:20027800E0BFFC1710800A04E1BFFF17E17FFE171009883A0000DE00E037883ADFC00117A2
:20028000DF000017DEC00204F800283ADEFFFA04DFC00515DF000415DF000404E13FFD15C5
:20028800E17FFE15E1BFFF15E0BFFD1700C0004410C00815E0BFFD1710800017108001049C
:200290001007883AE0BFFD171080081718800035E0BFFE17E0FFFF17D8000015E1FFFD17BC
:20029800018000343182B304180B883A1009883A00017900E0BFFD1710000915E0BFFD1759
:2002A00010800204D0E4D517E1FFFD170180003431833604180B883A1009883A0001404030
:2002A8001000040EE0FFFD1700A0003410BFFFC4188001150001883AE037883ADFC00117BA
:2002B000DF000017DEC00204F800283ADEFFF804DF000715DF000704E13FFF15E0BFFF1793
:2002B800E0BFFB15E0BFFB1710800017E0BFFC15E0BFFC171080010410800037E0BFFD15B0
:2002C000E0BFFD171080C00C10006D26E0BFFD171080400C1000352600800074E0BFF915D1
:2002C800E0BFFB1710800A17108000441081FFCCE0BFFE15E0BFFB1710C00B17E0BFFE177B
:2002D00018801526E0BFFC1710800037E0BFF915E0BFF91710A0000C10001126E0BFFB17B2
:2002D80010800A17E0FFF9171809883AE0FFFB171885883A10800E0411000005E0BFFB17CA
:2002E00010800A171080004410C1FFCCE0BFFB1710C00A15003FE2060001883A000001064C
:2002E8000001883AE0BFF91710BFFFEC10000F26E0BFFB1710C0081700BFFF841886703A5B
:2002F000E0BFFB1710C00815E0BFFC17108001041007883AE0BFFB17108008171880003503
:2002F800E0BFFC171080010410800037E0BFFD171080800C103FBE26E0BFFD171004D43A01
:20030000E0BFFA1500001406E0BFFC17E0FFFB1718C00D17E13FFB1720C7883A18C20E04AF
:2003080018C0000318C03FCC18C0201C18FFE00410C00035E0BFFB1710800D1710800044CA
:2003100010C1FFCCE0BFFB1710C00D15E0BFFA1710BFFFC4E0BFFA15E0BFFA1710000526B3
:20031800E0BFFB1710C00D17E0BFFB1710800C1718BFE51EE0BFFA17103F9D26E0BFFB176F
:2003200010C0081700BFFF441886703AE0BFFB1710C00815E0BFFB171080001710800104F9
:200328001007883AE0BFFB171080081718800035E0BFFC171080010410800037003F8C06D0
:200330000001883A0001883AE037883ADF000017DEC00104F800283ADEFFF804DF00071587
:20033800DF000704E13FFB15E0BFFB17E0BFF915E0BFF9171080001710800104108000377B
:20034000E0BFFA15E0BFFA171081000C10000B26E0BFF91710800017108001041007883A9D
:20034800E0BFF917108008171081001418800035E0BFF9171000091500000A06E0BFF91729
:2003500010C0091700A0003410BFFF0410C00536E0BFF9171080091710C00044E0BFF917CA
:2003580010C00915D0A4D517E037883ADF000017DEC00104F800283ADEFFFD04DF00021597
:20036000DF000204E13FFE15E17FFF1500000506E0BFFF171090000C1000022600BFFD444D
:2003680000000B06E0BFFE1710C00D17E0BFFE1710800C1718800526E0BFFE1710C00917EE
:20037000E0BFFE171080011718BFF1360005883AE037883ADF000017DEC00104F800283A80
:20037800DEFFFA04DF000515DF000504E13FFD15E17FFE15E1BFFF1500BFF9C4E0BFFB1525
:20038000E0BFFE1710DA80601800031E109A80A01000181E00002906E0BFFD1710C00117CC
:2003880000A0003410BFFFC418802126E0BFFF1710800017E0BFFC15E0BFFC171080009032
:200390001000061EE0FFFC1700A0003410BFFFC418800226E0BFFC170000020600A0003473
:2003980010BFFF84E0FFFD1718800115E03FFB1500000F06E0BFFD1710C0011700A000349F
:2003A00010BFFFC418800C26E0BFFD1710C00917E0BFFD17108001171885803A10C03FCCB1
:2003A800E0BFFF1710C00015E03FFB15000002060001883A000001060001883AE0BFFB1726
:2003B000E037883ADF000017DEC00104F800283ADEFFF304DFC00C15DF000B15DF000B04E0
:2003B800E13FFC15E17FFD15E1BFFE15E1FFFF15E0BFFD17E0BFF51500004706E0BFFC1780
:2003C00010800A17E0BFF715E0BFFC1710800B17E0BFF815E0FFF717E0BFF8171880053643
:2003C800E0FFF717E0BFF8171885C83AE0BFF6150000040600C20004E0BFF8171885C83A14
:2003D000E0BFF615E0BFF61710001E26E0FFFE17E0BFF6171880022EE0BFFE17E0BFF6159D
:2003D800E0BFFC1710C00E04E0BFF8171885883AE1BFF617100B883AE13FF51700023A80F2
:2003E000E0FFF517E0BFF6171885883AE0BFF515E0FFFE17E0BFF6171885C83AE0BFFE156D
:2003E800E0FFF817E0BFF6171885883A10C1FFCCE0BFFC1710C00B15E0BFFE1700BFCF1666
:2003F000000001060001883AE0FFF517E0BFFD171880141EE0BFFF171090000C1000131E19
:2003F8000001883AE0BFFC1710C00A17E0BFF7171880051EE0BFFC1710C00917E0BFFC17C3
:200400001080011718BFF736E0BFFC1710C00A17E0BFF71718800726E0BFFE1700BFB716DB
:20040800000005060001883A000003060001883A000001060001883AE0FFF517E0BFFD17D2
:20041000188018260005303AE0BFFB15E0FFFB1700BFFF841884703A1001703AE0BFFB17F3
:20041800E0BFFA15E0BFFC171080081710C00054E0BFFC1710C00815E0BFFC171080001799
:20042000108001041007883AE0BFFC171080081718800035E0BFFA17E0BFF915E0BFF91714
:200428001001703AE0FFF517E0BFFD1718800426E0FFF517E0BFFD171885C83A0000060650
:20043000E0BFFF171090000C1000022600BFFD440000010600BFFEC4E037883ADFC00117FB
:20043800DF000017DEC00204F800283ADEFFF304DFC00C15DF000B15DF000B04E13FFC15FE
:20044000E17FFD15E1BFFE15E1FFFF15E03FF515E0BFFD17E0BFF71500003706E0BFFC170D
:2004480010800C17E0BFF915E0BFFC1710800D17E0BFF515E0FFF917E0BFF5171880062EBF
:20045000E0FFF517E0BFF9171885C83A10BFFFC4E0BFF61500000B06E0BFF5171000052620
:2004580000C20004E0BFF9171885C83AE0BFF6150000040600C1FFC4E0BFF9171885C83AEA
:20046000E0BFF615E0BFF61710001E26E0FFFE17E0BFF6171880022EE0BFFE17E0BFF6150C
:20046800E0BFFC1710C20E04E0BFF9171885883AE1BFF617E17FFD171009883A00023A8018
:20047000E0FFFD17E0BFF6171885883AE0BFFD15E0FFFE17E0BFF6171885C83AE0BFFE15CC
:20047800E0FFF917E0BFF6171885883A10C1FFCCE0BFFC1710C00C15E0BFFE1700BFC716DB
:20048000000001060001883A0005303AE0BFFB15E0FFFB1700BFFF841884703A1001703A40
:20048800E0BFFB17E0BFFA15E0BFFC171080081710C00094E0BFFC1710C00815E0BFFC17DF
:2004900010800017108001041007883AE0BFFC171080081718800035E0BFFA17E0BFF815AD
:20049800E0BFF8171001703AE0BFFE170080100EE0BFFF171090000C1000101E0001883A27
:2004A000E0BFFC1710C00D17E0BFF5171880051EE0BFFC1710C00917E0BFFC171080011734
:2004A80018BFF736E0BFFC17108009171000051EE0BFFE1700BFD016000003060001883A76
:2004B000000001060001883AE0FFFD17E0BFF71718800426E0FFFD17E0BFF7171885C83AC1
:2004B80000000606E0BFFF171090000C1000022600BFFD440000010600BFFEC4E037883A1E
:2004C000DFC00117DF000017DEC00204F800283ADEFFFA04DFC00515DF000415DF000404FE
:2004C800E13FFF150007883AE0BFFF1710C00035E0BFFF1710800104108000370005303ADD
:2004D000E0BFFD15E0FFFD1700BFFF841884703A1001703AE0BFFD17E0BFFC150001F3408E
:2004D800E0BFFC17E0BFFE15E0BFFE171001703A0001883AE037883ADFC00117DF000017E8
:2004E000DEC00204F800283ADEFFF804DFC00715DF000615DF000604E13FFC15E17FFD15E4
:2004E800E1BFFE15E1FFFF15E0BFFF17E0BFFB15D0A4D5171000021EE0BFFB17D0A4D5154A
:2004F000E0BFFC171080010400C001C410C00035D8000015E1FFFC17018000343184C40409
:2004F800E17FFE17E13FFD17000179000001883AE037883ADFC00117DF000017DEC00204D4
:20050000F800283ADEFFF504DF000A15DF000A04E13FFC15E17FFD15E1BFFE15E1FFFF1576
:20050800E03FF615D0A4D51710003C26E0BFFC1710003826E0BFFC17E0FFFE1710C0031529
:20051000E0BFFC17E0FFFF1710C005150005303AE0BFF915E0FFF91700BFFF841884703AA7
:200518001001703AE0BFF917E0BFF815D0A4D617E0BFF615E0FFFD17E0BFF6171885883AA4
:2005200010C00044E0BFFC1710C00215E0BFFC1710C00217E0BFF6171880042EE0BFFC174B
:2005280000C0004410C0040500000206E0BFFC1710000405E0BFFC17D0E00904E0FFFA15A6
:20053000E0BFFB15E0BFFB17E0FFFA1710C00115E0BFFA1710C00017E0BFFB1710C0001548
:20053800E0BFFA1710800017E0FFFB1710C00115E0BFFA17E0FFFB1710C00015E0BFF81741
:20054000E0BFF715E0BFF7171001703A0005883A0000030600BFFA840000010600BFDE8453
:20054800E037883ADF000017DEC00104F800283ADEFFFE04DFC00115DF000015D839883A6C
:20055000D0A0071710000326D0A00717103EE83A00000106D0A4D004E037883ADFC00117E7
:20055800DF000017DEC00204F800283ADEFFFB04DFC00415DF000315DF000304E13FFF15EA
:20056000E0BFFF171000081601400304E13FFF17000256001007883A00800034108DDB04B9
:200568001885883A000001060005883AE0BFFD15E0BFFD1710001926E0BFFD171080001739
:200570001080041710000626E0BFFD171080001710800417E13FFD17103EE83A00000106D4
:200578000005883AE0BFFE15E13FFF170001E140E0BFFE171000070E000153001007883A8C
:20058000E0BFFE170085C83A1880001500BFFFC4000007060005883A0000050600015300BE
:200588001007883A008014441880001500BFFFC4E037883ADFC00117DF000017DEC0020449
:20059000F800283ADEFFFF04DF000015D839883A0001883AE037883ADF000017DEC0010415
:20059800F800283ADEFFFC04DF000315DF000304E13FFD15E17FFE15E1BFFF15E0BFFF1721
:2005A000E037883ADF000017DEC00104F800283ADEFFFE04DFC00115DF000015D839883A14
:2005A800D0A0071710000326D0A00717103EE83A00000106D0A4D004E037883ADFC001178F
:2005B000DF000017DEC00204F800283ADEFFFA04DFC00515DF000415DF000404E13FFE1591
:2005B800E17FFF15E0BFFE1710000326E0BFFE17108002171000061E000169001007883AEE
:2005C000008005841880001500BFFA8400001306E0BFFE17E0FFFF17E0FFFC15E0BFFD15C5
:2005C800E0BFFD17E0FFFC1710C00115E0BFFC1710C00017E0BFFD1710C00015E0BFFC17A5
:2005D00010800017E0FFFD1710C00115E0BFFC17E0FFFD1710C000150005883AE037883A61
:2005D800DFC00117DF000017DEC00204F800283ADEFFFF04DF000015D839883A0001883AEE
:2005E000E037883ADF000017DEC00104F800283ADEFFF904DFC00615DF000515DF000504BA
:2005E800E13FFC15E17FFD15E1BFFE15E1FFFF15E0800217D8800015E1FFFF17E1BFFE1718
:2005F000E17FFD17E13FFC1700019400E037883ADFC00117DF000017DEC00204F800283A2B
:2005F800DEFFF904DF000615DF000604E13FFE15E17FFF15E0BFFF17E0BFFA150005303AAD
:20060000E0BFFB15E0FFFB1700BFFF841884703A1001703AE0BFFB17E0BFFC1500C0004492
:20060800E0BFFA171884983A1007883AD0A4D4171884B03AD0A4D415D0A4D417100170FABF
:20061000E0BFFC17E0BFFD15E0BFFD171001703A0005883A0001883AE037883ADF000017A0
:20061800DEC00104F800283ADEFFF904DF000615DF000604E13FFE15E17FFF15E0BFFF17AC
:20062000E0BFFA150005303AE0BFFB15E0FFFB1700BFFF841884703A1001703AE0BFFB1709
:20062800E0BFFC1500C00044E0BFFA171884983A0084303A1007883AD0A4D4171884703A74
:20063000D0A4D415D0A4D417100170FAE0BFFC17E0BFFD15E0BFFD171001703A0005883ADB
:200638000001883AE037883ADF000017DEC00104F800283ADEFFFC04DF000315DF00030459
:20064000E13FFE15E17FFF15000530FAE0BFFD1500C00044E0BFFF171884983A1007883A13
:20064800E0BFFD171884703A1004C03A10803FCCE037883ADF000017DEC00104F800283A24
:20065000DEFFF504DFC00A15DF000915DF000904E13FFC15E17FFD15E1BFFE15E1FFFF15C3
:2006580000BFFA84E0BFF715E0BFFD17E0BFF815E0BFF817108008081000271E0005303A29
:20066000E0BFFB15E0FFFB1700BFFF841884703A1001703AE0BFFB17E0BFFA150080003484
:2006680010931304E0FFF817180690FA10C5883AE0FFFE1710C00015008000341093130444
:20067000E0FFF817180690FA10C5883A10800104E0FFFF1710C00015E0BFFE1710000526DF
:20067800E0BFF817100B883AE13FFC1700017E0000000406E0BFF817100B883AE13FFC175D
:2006800000018680E0BFF715E0BFFA17E0BFF915E0BFF9171001703AE0BFF717E037883A5B
:20068800DFC00117DF000017DEC00204F800283ADEFFF804DFC00715DF000615DC00051523
:20069000DF000604E13FFB15E17FFC15E1BFFD15E1FFFE15E1BFFE17E17FFD17E13FFC17BF
:200698000001CB80E0BFFA15E0BFFA171000221604000034840DDB04E0BFFA1701400304B0
:2006A0001009883A000256008085883A10C00017E0BFFB1710C0001504000034840DDB041B
:2006A800E0BFFA17014003041009883A000256008085883A1080010410C00017E0BFFB1713
:2006B00010C0011504000034840DDB04E0BFFA17014003041009883A000256008085883AAA
:2006B8001080020410C00017E0BFFB1710C00215E13FFA170001E1400001883AE6FFFF040F
:2006C000DFC00217DF000117DC000017DEC00304F800283ADEFFFB04DFC00415DF000315EE
:2006C800DF000304E13FFD15E17FFE15E1BFFF1501C07FC401800044E17FFD170100003461
:2006D000210DDE040001A30001C07FC4000D883AE17FFE1701000034210DDB040001A30028
:2006D80001C07FC401800044E17FFF1701000034210DE1040001A3000001883AE037883A3B
:2006E000DFC00117DF000017DEC00204F800283ADEFFFE04DFC00115DF000015D839883AF4
:2006E800D0A0071710000326D0A00717103EE83A00000106D0A4D004E037883ADFC001174E
:2006F000DF000017DEC00204F800283ADEFFFB04DFC00415DF000315DC000215DF00030492
:2006F800E13FFE15E0BFFE171080021710D00034E0BFFE1710C00215E03FFD150000230649
:2007000004000034840DDB04E0BFFD17014003041009883A000256008085883A10C0001755
:20070800E0BFFE17108000171880151E04000034840DDB04E0BFFD17014003041009883A2D
:20071000000256008085883A108002041080001710000B0E01400304E13FFD170002560070
:200718001007883A00800034108DDB041887883AE0BFFE171880022600BFFCC40000080656
:20072000E0BFFD1710800044E0BFFD15D0A006171007883AE0BFFD1718BFD92E0005883AC3
:20072800E6FFFF04DFC00217DF000117DC000017DEC00304F800283ADEFFF604DFC0091594
:20073000DF000815DF000804E13FFD15E17FFE15E1BFFF1500BFFFC4E0BFF91500BFFB443C
:20073800E0BFFA15E03FFB15D1600404E13FFD1700020600E0BFF815E0BFF8171000051EC2
:20074000E13FFD1700020F00E0BFF81500800044E0BFFB15E0BFF81710002B26E13FF817F7
:2007480000021F80E0BFF915E0BFF9171000030EE0BFF917E0BFFA150000250601400304A3
:20075000E13FF917000256001007883A00800034108DDB041885883AE0BFFC15E0FFFE17F5
:200758000090003410BFFFC41886703AE0BFFC1710C00215E0BFFB171000051EE13FFC1733
:200760000001BCC0E0BFFA15E0BFFA1710001016E0BFF8171080031710000826E0BFF81724
:2007680010800317E1FFFF17E1BFFE17E17FFD17E13FFC17103EE83A000001060005883A37
:20077000E0BFFA150000020600BFFB44E0BFFA15E0BFFA171000090EE13FF9170001E140DE
:200778000001B9001007883AE0BFFA170085C83A1880001500BFFFC400000106E0BFF917B2
:20078000E037883ADFC00117DF000017DEC00204F800283ADEFFFC04DFC00315DF0002154B
:20078800DC000115DF000204E13FFE15E0BFFE17108000D01000111E04000034840DDB044C
:20079000E0BFFE17014003041009883A000256008085883A10800204100000150400003460
:20079800840DDB04E0BFFE17014003041009883A000256008085883A100000150001883AF3
:2007A000E6FFFF04DFC00217DF000117DC000017DEC00304F800283ADEFFFA04DF000515DC
:2007A800DF000504E13FFF150005303AE0BFFC15E0FFFC1700BFFF841884703A1001703AC1
:2007B000E0BFFC17E0BFFB15E0BFFF17E0BFFD15E0BFFD1710800017E0FFFD1718C0011725
:2007B80010C00115E0BFFD1710800117E0FFFD1718C0001710C00015E0BFFD17E0FFFD1773
:2007C00010C00115E0BFFD17E0FFFD1710C00015E0BFFB17E0BFFE15E0BFFE171001703AD6
:2007C8000001883AE037883ADF000017DEC00104F800283ADEFFFB04DFC00415DF000315F7
:2007D000DF000304D0A00917E0BFFD15D0A4D61710800044D0A4D61500002E06E0BFFD1767
:2007D80010800017E0BFFE15E0BFFD171080040310803FCC10000426D0A4D6171000021EF8
:2007E000E0BFFD1710000405E0BFFD1710800217D0E4D61718801D36E0BFFD1710800403FB
:2007E80010803FCC1000191EE0BFFD1710800317E0FFFD1718C005171809883A103EE83A78
:2007F000E0BFFF15E0BFFF171000031EE13FFD170001E98000000D06E0BFFD1710C0021703
:2007F800E0BFFF171887883AE0BFFD1710C00215E0BFFD1710C00217D0A4D6171880032E6B
:20080000E0BFFD1700C0004410C00405E0BFFE17E0BFFD15E0FFFD17D0A0090418BFCF1EAF
:200808000001883A0001883AE037883ADFC00117DF000017DEC00204F800283ADEFFFF04E6
:20081000DF000015D839883A000170FA0001883AE037883ADF000017DEC00104F800283A07
:20081800DEFFFA04DFC00515DF000415DF000404E13FFE15E17FFF15E0BFFF17108000174A
:20082000E0BFFC15E13FFE1700003F4010800044E0BFFD1500000D06E0BFFC171080021761
:20082800E0FFFD17180D883AE17FFE171009883A000237801000021EE0BFFC1700000706DE
:20083000E0BFFC1710800017E0BFFC15E0FFFC17E0BFFF1718BFF01E0005883AE037883A73
:20083800DFC00117DF000017DEC00204F800283ADEFFFB04DFC00415DF000315DF00030484
:20084000E13FFF15D0A00217E0BFFD1500003106E0BFFD17108002171009883A00003F403D
:20084800E0BFFE15E0BFFD1710C00217E0BFFE1710BFFFC41885883A1080000310803FCC6F
:200850001080201C10BFE00410800BD81000031EE0BFFE1710BFFFC4E0BFFE15E0BFFE17B9
:20085800E0FFFF171885883A1080000310803FCC1080201C10BFE00410800BE01000081ECE
:20086000E0BFFE17E0FFFF171885883A1080000310803FCC1080201C10BFE00410000A1E8B
:20086800E0BFFD1710800217E0FFFE17180D883AE17FFF171009883A000237801000021EFF
:20087000E0BFFD1700000706E0BFFD1710800017E0BFFD15E0FFFD17D0A0020418BFCC1E73
:200878000005883AE037883ADFC00117DF000017DEC00204F800283ADEFFFA04DFC0051581
:20088000DF000415DC000315DF000404E13FFE1500BFFA04E0BFFD15E03FFC1500001D0691
:2008880004000034840DDB04E0BFFC17014003041009883A000256008085883A108000170D
:200890001000111E04000034840DDB04E0BFFC17014003041009883A000256008085883A6D
:20089800E0FFFE1710C00015D0E00617E0BFFC171880020EE0BFFC17D0A00615E0BFFC1751
:2008A000E0BFFD1500000606E0BFFC1710800044E0BFFC15E0BFFC1710800810103FE01E9E
:2008A800E0BFFD17E6FFFF04DFC00217DF000117DC000017DEC00304F800283ADEFFFE0415
:2008B000DF000115DF000104E13FFF15E0BFFF1710BFFE8410C0042818001A1E100690BA69
:2008B800008000341088BD041885883A108000171000683A00002334000023340000234446
:2008C0000000234400002344000023340000233C0000234400002334000023340000234418
:2008C800000023340000233C00002344000023440000233400800044000003060005883AA1
:2008D000000001060005883AE037883ADF000017DEC00104F800283ADEFFFE04000B883AC2
:2008D800DC000015DFC001152021883A00023D008009883A00025880218D883A21800826B4
:2008E0002080000328C0000310C0022610C5C83AF800283A2100004429400044003FF706F3
:2008E8000005883AF800283A2005883A2007883A218D883A198005262900000318C0004483
:2008F00029400044193FFFC5003FFA06F800283ADEFFF504DD00051505000034DC8003150C
:2008F800DFC00A15DF000915DDC00815DD800715DD400615DCC00415DC400215DC000115E0
:20090000D90000152825883AA50E3B04A44000178CC00C178C400C04980045269C000117EB
:200908000090003410BFFFC49D40221785BFFFC480A1883A8421883A8421883AAC2F883A0E
:20091000840002049C21883AB000271690000726A800041EB5BFFFC4BDFFFF04843FFF048E
:20091800003FF906B9002017913FFA1E9900011782000017213FFFC4B100021E9D80011538
:200920000000010680000015403FF2269F000117A8000526008000441592983AA94040177D
:20092800494A703A2800021E403EE83A00000906A90041174908703A2000041EB94000172D
:20093000D9000017403EE83A00000206B9000017403EE83A99000117E13FCC1E8900001744
:20093800993FDC26003FC906008000341080000410000F2699400117990000172800091E3A
:200940002000082689000015A8000226A809883A000000009809883A000000008CC00017A2
:20094800003FBD069823883A2027883A003FBA06DFC00A17DF000917DDC00817DD80071712
:20095000DD400617DD000517DCC00417DC800317DC400217DC000117DEC00B04F800283AF7
:200958000005883A2000072620C0004C2008D07A180001261145883A294B883A203FFA1EC9
:20096000F800283AF800283ADEFFFD04DF000215DF000204E13FFF150001883AE0BFFF175E
:20096800E0BFFE15E0BFFE1710000226002AF07000000106002AF0B0003FFF060A3264642E
:200970000A64C8640AC8FA960AFAFAFA64616552000000790000000A7665642F61746A2F98
:2009780061755F67000074727665642F61746A2F61755F67000074727665642F6C756E2F93
:200980000000006C00000000000000000000000000000000000000000000000000000000EB
:2009880000000000000000000000000000000000000000000000000000000000000000004F
:20099000000000000000000000000000000000000000000000000000000000000000000047
:2009980000000000000000000000000000000000000000000000000000000000000000003F
:2009A000000000000000000000000000000000000000000000000000000000000000000037
:200E400000000000000000000000000000000000000000000000000000000000000026C4A8
:200E4800000026CC000026D40000000000000000000000000000000000000000000000009E
:200E5000000000000000000000000000000000000000000000000000000000000000000082
:200E580000000000000000000000000000000000000000000000000000000000000000007A
:200E6000000000000000000000000000000000000000000000000000000000000000000072
:200E680000000000000000000000000000000000000000000000000000000000000000006A
:200E700000000000000000000000000000000000000000000000000000000004000000005E
:200E78000001000A000000000002000A000000000000000000000000000000000000000043
:200E8000000025E80000000000000968000008A8000009080000000000000000000009B852
:200E8800000210400000000A000000000000000000000000000000000000000000000000EE
:200E9000000000000000000000000000000000000000000000000000000000000000000042
:200E980000000000000000000000000000000000000000000000000000000000000000003A
:200EA000000000000000000000000000000000000000000000000000000000000000000032
:200EA80000000000000000000000000000000000000000000000000000000000000000002A
:20129000000000000000000000000000000000000000000000000000000038FC000038FCD6
:20129800000025F8000000000000000000000000000016640000000000000000000000009F
:2012A0000000374400000000000000000000374400000000000000000000374400000000BD
:2012A800000000000000000000000000000000000000000000000000000000000000000026
:2012B00000000000000000000000000000000000000000000000000000000000000000001E
:2012B800000000000000000000000000000000000000000000000000000000000000000016
:2012C00000000000000000000000000000000000000000000000000000000000000000000E
:2012C800000000000000000000000000000000000000000000000000000000000000000006
:2012D0000000000000000000000000000000000000000000000000000000000000000000FE
:2012D8000000000000000000000000000000000000000000000000000000000000000000F6
:2012E0000000000000000000000000000000000000000000000000000000000000000000EE
:2012E8000000000000000000000000000000000000000000000000000000000000000000E6
:2012F0000000000000000000000000000000000000000000000000000000000000000000DE
:2012F8000000000000000000000000000000000000000000000000000000000000000000D6
:201300000000260400002604000038F4000038F40000374400003744FFFFFFFF000000002F
:20130800FFFFFFFF0000391000003910000000000000000000000000000000000000000037
:201310000000000000000000000000000000000000000000000000000000000000000000BD
:201318000000000000000000000000000000000000000000000000000000000000000000B5
:201320000000000000000000000000000000000000000000000000000000000000000000AD
:201328000000000000000000000000000000000000000000000000000000000000000000A5
:00000001FF
